:020000040800F2
:10000000980400200101000831050008E103000800
:100010002D050008D90100087B1800080000000029
:10002000000000000000000000000000B10E000809
:10003000DD010008000000009F0800080D10000806
:100040001B0100081B0100081B0100081B01000820
:100050001B0100081B0100081B0100081B01000810
:100060001B0100081B0100081B0100081B01000800
:100070001B0100081B0100081B0100081B010008F0
:100080001B0100081B0100081B0100081B010008E0
:100090001B0100081B0100081B0100081B010008D0
:1000A0001B0100081B0100081B0100081B010008C0
:1000B000B11200081B0100081B0100081B01000809
:1000C0001B0100081B0100081B0100081B010008A0
:1000D0001B0100081B0100081B0100081B01000890
:1000E0001B0100081B0100081B010008DFF80CD0F1
:1000F00000F060F8004800479D1A000898040020AE
:100100000648804706480047FEE7FEE7FEE7FEE7B1
:10011000FEE7FEE7FEE7FEE7FEE7FEE71110000858
:10012000ED00000840EA01039B0703D009E008C97D
:10013000121F08C0042AFAD203E011F8013B00F8AC
:10014000013B521EF9D27047D2B201E000F8012BF8
:10015000491EFBD270470022F6E710B513460A4647
:1001600004461946FFF7F0FF204610BD10B50022E7
:1001700000E0521C835C8C5CA34201D1002BF8D1BF
:10018000D8B2E1B2401A10BD30B50B46014600208E
:100190002022012409E021FA02F59D4205D303FA49
:1001A00002F5491B04FA02F52844151EA2F10102CA
:1001B000F1DC30BD064C074D06E0E06840F001037D
:1001C00094E8070098471034AC42F6D3FFF792FF4B
:1001D000D02D0008F02D000800BFFEE7704700009A
:1001E00070B504460F4800684FF47A71B0FBF1F621
:1001F000304600F0E1FE002508E000BF4FF0E020AF
:10020000006900F480300028F8D06D1CA542F4D3BA
:100210004FF0E020006920F001004FF0E02108617C
:1002200070BD00000000002010B500F069FC10BD9A
:100230002DE9F0410246002500260020002300247D
:10024000002791F803C00CF00F0591F803C00CF0E3
:10025000100CBCF1000F03D091F802C04CEA050568
:1002600091F800C0BCF1000F31D0146800202BE0E1
:100270004FF0010C0CFA00F3B1F800C00CEA0306D1
:100280009E4220D183004FF00F0C0CFA03F7BC43C1
:1002900005FA03FC4CEA040491F803C0BCF1280FF2
:1002A00006D14FF0010C0CFA00FCC2F814C00AE0B1
:1002B00091F803C0BCF1480F05D14FF0010C0CFAC6
:1002C00000FCC2F810C0401C0828D1D31460B1F85B
:1002D00000C0BCF1FF0F34DD546800202EE000F1B7
:1002E000080C4FF0010808FA0CF3B1F800C00CEA52
:1002F00003069E4221D183004FF00F0C0CFA03F746
:10030000BC4305FA03FC4CEA040491F803C0BCF1B9
:10031000280F05D100F1080C08FA0CF8C2F8148077
:1003200091F803C0BCF1480F07D100F1080C4FF061
:10033000010808FA0CF8C2F81080401C0828CED337
:100340005460BDE8F0810000F0B50A4600230024A7
:100350000021002500F00046B6F1004F02D11D4EED
:10036000F16901E01B4E7168C0F3034583B200F4EC
:100370004016B6F5401F08D121F07061154E766821
:1003800026F07066134F7E6012E000F48016B6F51A
:10039000801F06D1032606FA05F4A14341F07061DF
:1003A00006E0460D360103FA06F6B14341F07061EE
:1003B00022B1460D360103FA06F6314300F000463D
:1003C000B6F1004F02D1034EF16101E0014E7160C0
:1003D000F0BD0000000001404161704701617047BD
:1003E00000BFFEE752284AD012DC302827D008DCB4
:1003F000022854D010282ED0182824D022285ED1CC
:1004000055E038282BD0422831D04A2857D132E045
:10041000982848D008DC5A2825D068280BD07A289C
:1004200015D090284BD136E0A8282CD0C22842D035
:10043000E02844D12BE00021224A11703FE0012145
:10044000204A11703BE002211E4A117037E003215F
:100450001C4A117033E004211A4A11702FE0052163
:10046000184A11702BE00621164A117027E0072167
:10047000144A117023E00821124A11701FE009216B
:10048000104A11701BE00A210E4A117017E0142166
:100490000C4A117013E01E210A4A11700FE0282146
:1004A000084A11700BE03221064A117007E03C2126
:1004B000044A117003E04621024A117000BF00BFD8
:1004C000704700008000002008B50121182000F0CE
:1004D000F7F90220ADF8000010208DF8030003208A
:1004E0008DF8020069460F48FFF7A2FE2020ADF804
:1004F000000069460C48FFF79BFE0820ADF800009D
:1005000069460948FFF794FE02210648FFF766FF97
:1005100020210548FFF762FF08210348FFF75CFF31
:1005200008BD0000000C01400010014000BFFEE7C4
:100530007047000070B5002100230F22C47804B377
:10054000154C246804F4E064C4F5E064210AC1F1A8
:100550000403CA40447804FA03F184781440214328
:1005600009010E4C0678A155047804F01F050124FA
:10057000AC4005786D11AD0005F1E025C5F80041EE
:1005800009E0047804F01F050124AC40044D06780E
:10059000761145F8264070BD0CED00E000E400E067
:1005A00080E100E002490143024A11607047000007
:1005B0000000FA050CED00E070B500240EE02146C5
:1005C000002000F0D5F8002504E0002000F0B8F885
:1005D000681CC5B2802DF8DB601CC4B2082CEEDBB1
:1005E00070BD000008B50121052000F069F9102058
:1005F0008DF8030003208DF802001020ADF80000F4
:1006000069460848FFF714FE4FF40040ADF80000BB
:1006100069460448FFF70CFE01210348FFF794FEEA
:1006200008BD0000000801400002300010B500F0D5
:1006300089FAFFF7F9FDFFF7D5FF00F04FF8AE207C
:1006400000F066F8002000F063F8102000F060F879
:10065000402000F05DF8B02000F05AF8812000F052
:1006600057F8FF2000F054F8A12000F051F8A62020
:1006700000F04EF8A82000F04BF83F2000F048F8BA
:10068000C82000F045F8D32000F042F8002000F028
:100690003FF8D52000F03CF8802000F039F8D92050
:1006A00000F036F8F12000F033F8DA2000F030F8EE
:1006B000122000F02DF8DB2000F02AF8302000F0A6
:1006C00027F88D2000F024F8142000F021F8AF2046
:1006D00000F01EF8FFF770FF10BD000010B5C82035
:1006E000FFF77EFD10210948FFF778FEC820FFF7CD
:1006F00077FD10210548FFF76FFEC820FFF770FD5A
:1007000010210248FFF76AFE10BD000000080140FA
:1007100010B504464FF400410748FFF75DFE802105
:100720000648FFF759FE204600F012FA80210348E0
:10073000FFF754FE10BD000000080140000C01400E
:1007400010B504464FF400410748FFF747FE8021EB
:100750000648FFF741FE204600F0FAF980210348E1
:10076000FFF73CFE10BD000000080140000C0140F6
:1007700070B504460D4605F1B001C8B2FFF7C8FFD9
:1007800004F00F00FFF7C4FF04F0F001102202EBA9
:100790002110FFF7BDFF70BD2DE9F04180460E46E8
:1007A0001746002416E03019C1B24046FFF7E0FFBB
:1007B00000250BE0A7F12001084A02EB011105EB2F
:1007C000C402885CFFF7BCFF681CC5B2082DF1DBD2
:1007D000601CC4B2022CE6DBBDE8F081E01E00081C
:1007E00070B505460E46144625E020787F2811DDB9
:1007F00022463146284600F022F805F11000C5B225
:10080000802D02DDB01CC6B20025082E00DD0026BA
:10081000A41C10E0227831462846FFF7BDFF05F101
:100820000800C5B2802D02DDB01CC6B20025082E1E
:1008300000DD0026641C20780028D6D170BD2DE98B
:10084000F04389B080460F4615464FF0000968789E
:10085000A1382978A1395E2202FB01004FEA401934
:10086000202201A9484600F0BBF9002412E0381903
:10087000C1B24046FFF77CFF002607E006EB0411FB
:1008800001AA505CFFF75CFF701CC6B2102EF5DBAE
:10089000601CC4B2022CEADB09B0BDE8F0837047EB
:1008A00029B1064AD2690243044BDA6104E0034AE3
:1008B000D2698243014BDA617047000000100240A8
:1008C00029B1064A92690243044B9A6104E0034A43
:1008D00092698243014B9A61704700000010024008
:1008E00030B500210022002400232D4D6D6805F055
:1008F0000C0121B1042905D0082923D105E0294D97
:10090000056022E0274D05601FE0254D6D6805F468
:100910007012234D6D6805F48034022505EB924278
:100920001CB9214D554305600BE01D4D6D6805F464
:1009300000351DB11C4D5543056002E0194D55436E
:10094000056002E0174D056000BF00BF144D6D68E3
:1009500005F0F0010909154D6B5C0568DD40456047
:100960000F4D6D6805F4E061090A104D6B5C456838
:10097000DD4085600A4D6D6805F46051C90A0B4D74
:100980006B5C4568DD40C560054D6D6805F4404110
:10099000890B074D6B5CC568B5FBF3F5056130BD90
:1009A0000010024000127A0000093D0014000020EF
:1009B0002400002000B589B001210920FFF780FF45
:1009C00001210846FFF76CFF01212D48FFF7BCFC11
:1009D00001212C48FFF7B8FC0820ADF820000420C6
:1009E0008DF8230003208DF8220008A92648FFF780
:1009F0001FFC08212448FFF7F1FC42F20F70ADF80C
:100A000014004720ADF810000020ADF81600ADF836
:100A1000120004A94FF0804000F0D6FD0420ADF88C
:100A200004000020ADF806000120ADF80800002009
:100A3000ADF80A000320ADF80C0001A94FF080408A
:100A400000F028FD0121880700F003FD1C208DF82F
:100A50001C0001208DF81D0003208DF81E000120D0
:100A60008DF81F0007A8FFF765FD01220521880703
:100A700000F066FD0521880700F0E8FC09B000BD24
:100A80000002300000011800000C014010B50020E9
:100A9000184B1B7803F0400353B3174B1B68190E18
:100AA000154B1B68C3F30742D343DBB28B4210D113
:100AB00079B9114B1B88C3F307210F4B1A78D34325
:100AC000DBB28B4205D1084600230A4C23700A4C46
:100AD000236020B1074B1B7803F0800343B9054B1B
:100AE0001B7823F04003034C23700023034C237036
:100AF00010BD000084000020880000208C00002031
:100B000010B500F00BF900F09FF910BD10B50446C8
:100B100000BF02210A4800F06BF90028F9D02146F5
:100B2000074800F071F900BF0121054800F060F9A5
:100B30000028F9D0024800F064F9C0B210BD0000EE
:100B40000030014010B500F0E9F800F07DF910BD6B
:100B500010B5044600BF02210A4800F049F90028F8
:100B6000F9D02146074800F04FF900BF01210548A0
:100B700000F03EF90028F9D0024800F042F9C0B276
:100B800010BD00000038004021B1028842F0400250
:100B9000028004E002884FF6BF731A40028070475B
:100BA00010B5044600F0AAF801210C48FFF714FC28
:100BB000202000F055F8C4F3074000F051F8C4F3CA
:100BC000072000F04DF8E0B200F04AF80121034898
:100BD000FFF704FC00F02CF810BD0000000C0140F1
:100BE00070B504460D46164601211048FFF7F4FB88
:100BF000032000F035F8C4F3074000F031F8C4F3E7
:100C0000072000F02DF8E0B200F02AF804E0002000
:100C100000F026F828706D1C301EA6F10106F6D1F2
:100C200001210248FFF7DAFB70BD0000000C014013
:100C300010B501210948FFF7CFFB052000F010F89F
:100C400000BF002000F00CF8044604F0010000286A
:100C5000F7D101210148FFF7C1FB10BD000C014095
:100C600010B504462046FFF751FF10BD70B504468D
:100C70000D46164600F042F801211448FFF7ACFB80
:100C80000220FFF7EDFFC4F30740FFF7E9FFC4F3CD
:100C90000720FFF7E5FFE0B2FFF7E2FFB6F5807F40
:100CA00003D90BA000F0ECFD70BD03E02878FFF73E
:100CB000D7FF6D1C301EA6F10106F7D101210348B4
:100CC000FFF78CFBFFF7B4FF00BFEDE7000C01401E
:100CD0003C3C464C4153482D4552524F523E3E20DB
:100CE000C3BFB4CED0B4C8EBD7EEB6E0323536D7FA
:100CF000D6BDDAA3A1A3A1A3A10A000010B50121CA
:100D00000548FFF769FB0620FFF7AAFF012102480B
:100D1000FFF764FB10BD0000000C014008B5012185
:100D20000C20FFF7CDFD01210803FFF7C9FD0121CC
:100D30000820FFF7C5FD01218803FFF7B1FD202042
:100D4000ADF8000018208DF8030003208DF8020094
:100D500069462548FFF76CFA8020ADF80000694627
:100D60002148FFF765FA4020ADF8000004208DF817
:100D7000030069461C48FFF75BFA0120ADF800004C
:100D800010208DF8030069461848FFF751FA4FF418
:100D90000050ADF8000018208DF8030003208DF8F6
:100DA000020069461148FFF743FA4FF40040ADF8DE
:100DB000000069460D48FFF73BFA4FF48040ADF85C
:100DC000000004208DF8030069460848FFF730FA58
:100DD0008020ADF8000010208DF80300694603481C
:100DE000FFF726FA08BD000000080140000C014092
:100DF0000246002013890B400BB1012000E00020C7
:100E000070470146888970478181704710B500227C
:100E1000028802F441520B884C8823438C88234378
:100E2000CC8823430C8923434C8923438C89234357
:100E3000CC8923431A430280838B4FF2FF742340F3
:100E400083830B8A038210BD00B585B00020ADF806
:100E500000004FF48270ADF802000020ADF80C00E5
:100E60000120ADF808000220ADF806000020ADF822
:100E70001000ADF80400ADF80E004FF40070ADF8AE
:100E80000A0069460848FFF7C1FF69460748FFF7AF
:100E9000BDFF01210448FFF777FE01210348FFF75A
:100EA00073FE05B000BD0000003001400038004076
:100EB000704770B504460D462946204600F0D9FC1F
:100EC00000BF8021204600F023FC0028F9D070BD2F
:100ED00010B500F001F810BD0CB500200190009095
:100EE0003348006840F480303149086000BF304822
:100EF000006800F4003000900198401C01900098B8
:100F000018B90198B0F5A06FF1D12948006800F434
:100F1000003010B10120009001E000200090009806
:100F2000012843D12348006840F01000214908609F
:100F30000846006820F0030008600846006840F09A
:100F4000020008601A48406819494860084640682D
:100F500048600846406840F4806048600846406841
:100F600020F47C1048600846406840F4E81048606F
:100F70000846006840F08070086000BF0C480068B8
:100F800000F000700028F9D00948406820F0030004
:100F9000074948600846406840F00200486000BFCA
:100FA0000348406800F00C000828F9D10CBD00008F
:100FB000001002400020024030B50146B1F1807FB0
:100FC00001D3012030BD21F07F40401E4FF0E022D0
:100FD000506150170F22002807DA13071D0E094B26
:100FE00000F00F04241F1D5503E013071C0E064BD1
:100FF0001C5400BF00204FF0E022906107201061D8
:101000000020DFE718ED00E000E400E0704700009A
:1010100010B51348006840F0010011490860084607
:101020004068104908400E494860084600680E496B
:1010300008400B4908600846006820F480200860DA
:101040000846406820F4FE0048604FF41F008860A6
:10105000FFF73EFF4FF000600449086010BD00003C
:10106000001002400000FFF8FFFFF6FE08ED00E070
:10107000F0B50C46154600220021068C4FF6FE778F
:101080003E400684028B018C4FF60C7632407E1C6B
:1010900006EA03162E433243104EB0420ED0104ED5
:1010A000B0420BD0B0F1804F08D00E4EB04205D008
:1010B0000D4EB04202D00D4EB04206D14FF6FD7635
:1010C000314044F00106314305E04FF6F5763140FA
:1010D00044F00106314302830184F0BD002C01403D
:1010E000003401400004004000080040000C0040B3
:1010F000F0B50C461546002200210026078C4FF65D
:10110000EF7C07EA0C070784028B018C4FF6FF7710
:1011100007EA041640F6FF473A404FF6FF7707EA22
:1011200003373A434FF6FF7707EA05273A43114F53
:10113000B8420ED0104FB8420BD0B0F1804F08D05B
:101140000E4FB84205D00E4FB84202D00D4FB842F4
:1011500006D14FF6DF77394046F01007394305E0F6
:101160004FF65F77394044F010073943028301841A
:10117000F0BD0000002C014000340140000400409C
:1011800000080040000C0040F0B50C461546002257
:1011900000210026078C4FF6FF6C07EA0C07078436
:1011A000828B018C4FF6FF7707EA04264FF60C7707
:1011B0003A404FF6FF7707EA03172F433A43114FA0
:1011C000B8420ED0104FB8420BD0B0F1804F08D0CB
:1011D0000E4FB84205D00E4FB84202D00D4FB84264
:1011E00006D14FF6FF57394046F48077394305E082
:1011F0004FF2FF57394044F48077394382830184AA
:10120000F0BD0000002C014000340140000400400B
:1012100000080040000C0040F0B50C4615460022C6
:1012200000210026078C4EF6FF7C07EA0C07078496
:10123000828B018C4FF6FF7707EA043640F6FF47B2
:101240003A404FF6FF7707EA05273A434FF6FF7714
:1012500007EA03373A43114FB8420ED0104FB84255
:101260000BD0B0F1804F08D00E4FB84205D00E4FD2
:10127000B84202D00D4FB84206D14DF6FF77394043
:1012800046F48057394305E047F6FF57394044F4A8
:101290008057394382830184F0BD0000002C014057
:1012A000003401400004004000080040000C0040F1
:1012B00010B50121880700F0DBF8F8B15E4800782E
:1012C00000F08000D0B15C48007820F010005A494E
:1012D00008700846007800F00F0020B90846007832
:1012E00040F0400008705448007800F00F000E28CD
:1012F00005DA51480078401C4F4908700AE04E4812
:10130000007820F080004C4908700846007800F012
:10131000F00008700421080700F0AAF8002811D096
:101320004648006878B10221480700F012F9002110
:101330004FF0804000F01AF93F48007840F010006C
:101340003D49087072E04FF0804000F08EF83C4953
:10135000088000214FF0804000F0FBF8364800780C
:1013600000F0100000285BD03348007800F08000C7
:10137000F0B333480088B0F5967F0DDD3048008823
:10138000B0F5487F08DA2F48006840002D49086012
:1013900008460068086043E029480088B0F5AF6F50
:1013A0000FDD27480088B0F5E16F0ADA25480068AC
:1013B0004000244908600846006840F001000860C9
:1013C0002EE01F48008840F69801884228DD1C481E
:1013D000008840F62821884222DA1B480078401C09
:1013E000194908701448007800F0F000124900E034
:1013F00001E0087014E01248008841F26801884258
:101400000EDD0F48008841F25C21884208DA0A4864
:10141000007840F080000849087000200A490870F0
:101420000548007820F0100003490870052188075E
:1014300000F00CF810BD0000840000200C81214257
:1014400082000020880000208C000020CA43028215
:10145000704721B1028842F00102028004E0028854
:101460004FF6FE731A40028070470146088F70479E
:1014700030B50246002000230024158A05EA010346
:10148000958905EA010413B10CB1012000E00020A8
:1014900030BD000070B505460C46244885420ED08C
:1014A000234885420BD0B5F1804F08D021488542B2
:1014B00005D02148854202D02048854200D100E075
:1014C00000BF208850B92389A28861882846FFF789
:1014D000CFFDE188284600F04BF825E0208804285D
:1014E0000AD12389A28861882846FFF701FEE18896
:1014F000284600F046F817E0208808280AD12389FA
:10150000A28861882846FFF73FFEE188284600F060
:1015100045F809E02389A28861882846FFF77CFE08
:10152000E188284600F043F870BD0000002C01401F
:10153000003401400004004000080040000C00405E
:101540001AB183890B43838102E083898B438381B2
:1015500070470A460021018C4FF6DF7319404FF6A1
:10156000FF7303EA021319430184704781847047B3
:10157000028B4FF6F3731A400283028B0A430283F5
:101580007047028B4FF2FF331A400283028B4FF6F3
:10159000FF7303EA01231A4302837047828B4FF6DD
:1015A000F3731A408283828B0A4382837047828B53
:1015B0004FF2FF331A408283828B4FF6FF7303EAA8
:1015C00001231A4382837047002202881D4B9842F0
:1015D0000ED01D4B98420BD0B0F1804F08D01B4B62
:1015E000984205D01A4B984202D01A4B984204D127
:1015F0004FF68F731A404B881A43174B984207D007
:10160000164B984204D04FF6FF431A40CB881A433A
:1016100002808B8883850B8803850A4B98420BD008
:10162000094B984208D00E4B984205D00D4B98427A
:1016300002D00D4B984201D10B7A0386012383829D
:1016400070470000002C01400034014000040040BD
:1016500000080040000C0040001000400014004052
:1016600000400140004401400048014021B182890E
:1016700042F40052828104E082894DF6FF731A40E1
:101680008281704700B585B0012144F20400FFF764
:1016900017F94FF40070ADF8100018208DF8130002
:1016A00003208DF8120004A91748FEF7C1FD4FF47E
:1016B0008060ADF8100004208DF8130004A91248D2
:1016C000FEF7B6FD4FF4E13000900020ADF80400C5
:1016D000ADF80600ADF808000C20ADF80A000020B7
:1016E000ADF80C006946094800F044F800F0AEF887
:1016F000012240F22551054800F017F80121034866
:10170000FFF7B4FF05B000BD0008014000380140FC
:1017100002460020B1F5007F00D100BF13880B40C6
:101720000BB1012000E000207047F0B50346002413
:1017300000260025002040F66A17B94200D100BFFC
:101740001846C1F3421401F01F06012707FA06F5F7
:10175000012C01D10C3004E0022C01D1103000E04A
:1017600014301AB107682F43076002E00768AF43DF
:101770000760F0BD2DE9F04786B005460E4600240F
:10178000A24600BFA1460027B08900B100BF2F4686
:101790002C8A4CF6FF700440F08804432C82AC89FC
:1017A0004EF6F3100440B08831890843718908432C
:1017B0000443AC81AC8A4FF6FF400440B089044337
:1017C000AC8201A8FFF78CF81F48874202D1DDF8F0
:1017D00010A001E0DDF80CA0A88900F4004040B1A1
:1017E0000AEBCA0000EB0A1031684900B0FBF1F8BF
:1017F00007E00AEBCA0000EB0A1031688900B0FB71
:10180000F1F86420B8FBF0F004012009642101FB29
:101810001089A88900F4004040B1322000EBC900D3
:10182000B0FBF1F000F00700044308E0322000EBC9
:1018300009106421B0FBF1F000F00F0004432C818B
:1018400006B0BDE8F08700000038014008B54FF44D
:10185000C060FEF7A7FE25208DF8000001208DF85E
:1018600001008DF802008DF803006846FEF762FE65
:1018700008BDC1F308028280704700BFFEE7000088
:101880000FB4054B10B503A9044A029800F018F8EC
:1018900010BC5DF814FB0000791A000890000020CD
:1018A00002E008C8121F08C1002AFAD17047704729
:1018B000002001E001C1121F002AFBD17047000087
:1018C0002DE9FF4F8BB09A460F460546002606E0ED
:1018D00025280BD052460D9990476D1C761C287810
:1018E0000028F5D10FB03046BDE8F08F0024A046A7
:1018F0000122604900E0044315F8013F203B02FA51
:1019000003F00842F7D128782E2817D115F8010FD7
:1019100044F004042A280ED06FF02F022878A0F19A
:10192000300109290AD808EB880102EB410100EBDC
:1019300001086D1CF2E757F8048B6D1C28786928A4
:101940003ED006DC0028CDD063280BD0642804D11B
:1019500036E0732810D075284BD052460D99904729
:10196000761C85E017F8040B8DF8000000208DF838
:101970000100E946012003E057F8049B4FF0FF30D7
:1019800061074FF0000401D40AE0641C44450DDAFD
:101990008442FADB19F804100029F6D106E0641C31
:1019A0008442FCDB19F804100029F8D1264404E035
:1019B00019F8010B52460D999047641EF8D257E072
:1019C00001CF4FF00A0B002802DA40422D2102E03D
:1019D000210504D52B218DF82410012103E0E10716
:1019E00005D02021F7E70DF1200908910CE0002136
:1019F000F9E701CF4FF00A0BF9E75946FEF7C4FBB0
:101A000001F1300209F8012D0028F6D1ADEB0900F3
:101A100000F1200B600701D44FF00108D84502DD2A
:101A2000A8EB0B0000E000208046002406E009A897
:101A30005246005D0D999047641C761C08988442BC
:101A4000F5DB04E0302052460D999047761CB8F142
:101A50000001A8F10108F5DC05E019F8010B524678
:101A60000D999047761CBBF10001ABF1010BF4DC42
:101A70006D1C34E70928010070B504460D46E1B23B
:101A80000548FFF716FA00BF80210348FFF740FE24
:101A90000028F9D0002070BD0038014090B000242B
:101AA0000025A146A24600271422D3496846FEF726
:101AB00039FBA0460026FEF707FDFFF7E3FDFEF722
:101AC000B3FBFEF7B3FDFEF775FF01220FA94CF241
:101AD000B430FFF785F89DF83C00882811D04CF20F
:101AE0005030FFF75DF888200F9001220FA94CF2CB
:101AF000B430FFF7BBF80722C0A14CF25030FFF71B
:101B0000B5F8142205A94CF25030FFF769F8BDA0D2
:101B1000FFF7B6FE6FE1FEF7B9FF8346FEF762FC02
:101B2000BF4800780A2190FBF1F0092843D2DFE892
:101B300000F00543BFCFD5DEE7F3F200B8F1000FA8
:101B400000D0DEB12CB925B91EB904F14800C4B2E9
:101B500005E024B91DB916B104F17000C4B2B14852
:101B6000AF490978425C3846791CCFB20AA90A54B9
:101B70002A2229462046FEF70FFE15E01CB915B9AA
:101B800004F16800C4B2A748A5490978425C384608
:101B9000791CCFB205A90A54A248A1490978425C30
:101BA00029462046FEF7F8FD04F10800C4B2782C5F
:101BB00001DD022500241AE100200AA9C855B8F168
:101BC000000F01D0002E47D0142205A94CF250304E
:101BD000FFF706F805A90AA8FEF7C8FA90B992A27D
:101BE00004213220FEF7FCFD90A0FFF749FE4FF4E0
:101BF0007A70FEF7F5FA0027002400250026FEF78C
:101C0000DBFC50E069460AA8FEF7B0FA90B986A25C
:101C100004213220FEF7E4FD84A0FFF731FE4FF4EB
:101C20007A70FEF7DDFA0027002400250026FEF773
:101C3000C3FC38E080A204213220FEF7D1FD80A051
:101C4000FFF71EFE4FF47A70FEF7CAFA0027002451
:101C50000025FEF7B1FC26E0FEF7AEFC4CF250305A
:101C6000FEF79EFF88200F9001220FA94CF2B4309E
:101C7000FEF7FCFF142205A94CF25030FEF7F6FFE8
:101C800072A203210020FEF7ABFD05A973A0FFF7A8
:101C9000F7FD4FF47A70FEF7A3FA00270024002521
:101CA000A046FEF789FC142105A8FEF754FA9EE031
:101CB0001DB114B9A81EC5B28024A4F10800C4B295
:101CC000781EC7B2202229462046FEF765FD8EE029
:101CD000002700240025FEF76FFC88E0FEF76CFC6F
:101CE0004FF0010801260027002400257FE0FEF7C1
:101CF00063FC4FF00008002600270024002576E052
:101D00005B48006880F0020059490860B9F1000F93
:101D100003D1012002E051E022E000208146B9F128
:101D2000000F05D053A205211420FEF759FD04E051
:101D300052A205211420FEF753FD08215248FEF758
:101D40004DFB4FF49670FEF74BFA08214E48FEF714
:101D500043FB4FF47A70FEF743FAFEF72DFC46E0A2
:101D60004948C06880F020004749C860BAF1000FB8
:101D700001D1012000E000208246BAF1000F05D019
:101D800042A205211420FEF72BFD04E041A205210B
:101D90001420FEF725FD08213B48FEF71FFB4FF4FA
:101DA0009670FEF71DFA08213748FEF715FB4FF431
:101DB0007A70FEF715FAFEF7FFFB18E046B9B8F1A6
:101DC000000F05D136A200210846FEF709FD0EE0FE
:101DD00046B9B8F1000F05D034A200210846FEF73D
:101DE000FFFC04E035A200210846FEF7F9FC00BF25
:101DF00050200B4908708EE6CC1E00083132333477
:101E000035360000BAECCDE2D2A3BFD8C3DCC2EBBA
:101E1000CBF8B3F5CABCBBAFCDEAB3C90D0A00001D
:101E200080000020280000204F4B0000C3DCC2EBE4
:101E3000D5FDC8B70D0A00004552524F52000000B0
:101E4000C3DCC2EBB4EDCEF30D0A00005061737336
:101E5000776F72645F4D6F64204F4B00C3DCC2EB41
:101E6000D0DEB8C4B3C9B9A63A25730D0A00000084
:101E70000C0C01404C4544315F4E4F004C45443101
:101E80005F4F464600000000001001404C454432C0
:101E90005F4E4F004C4544325F4F46460000000005
:101EA00050617373776F72643A000000506173730E
:101EB000776F7264204D6F643A0000005061737355
:101EC000776F726420526F6F743A00003535353584
:101ED0003535000000000000000000000000000098
:101EE00000000000000000000000000000000000F2
:101EF000000000F8000000000000003300000000B7
:101F000000100C02100C0200000000000000000095
:101F10000040C07840C0780000043F04043F040043
:101F200000708888FC08300000182020FF211E0067
:101F3000F008F0806018000000310C031E211E0024
:101F400000F00888700000001E21232C19272110A2
:101F500000120E0000000000000000000000000061
:101F6000000000E0180402000000000718204000F4
:101F700000020418E00000000040201807000000E4
:101F8000404080F0804040000202010F0102020048
:101F900000000000E0000000000101010F0101014C
:101FA0000000000000000000009070000000000031
:101FB000000000000000000000010101010101001B
:101FC00000000000000000000030300000000000B1
:101FD00000000000C0380400006018070000000086
:101FE00000E010080810E000000F102020100F0083
:101FF00000001010F8000000000020203F2020000A
:10200000007008080808F000003028242221300061
:1020100000300808088870000018202121221C00C8
:102020000000804030F8000000060524243F2424EE
:1020300000F88888880808000019202020110E0068
:1020400000E0108888900000000F112020201F0061
:1020500000180808886818000000003E0100000011
:102060000070880808887000001C222121221C00B2
:1020700000F008080810E0000001122222110F00F1
:10208000000000C0C0000000000000303000000070
:102090000000008000000000000000E000000000E0
:1020A00000008040201008000001020408102000F9
:1020B0000040404040404000000202020202020094
:1020C00000081020408000000020100804020100D9
:1020D00000704808088870000000003037000000D9
:1020E000C030C828E810E000071827282F2817005C
:1020F0000000C038E0000000203C23020227382006
:1021000008F8888888700000203F202020110E00E9
:10211000C0300808080838000718202020100800E0
:1021200008F808080810E000203F202020100F00C9
:1021300008F88888E8081000203F20202320180095
:1021400008F88888E8081000203F200003000000FD
:10215000C03008080838000007182020221E02009E
:1021600008F808000008F808203F210101213F205D
:10217000000808F8080800000020203F2020000088
:1021800000000808F8080800C08080807F00000078
:1021900008F888C028180800203F200126382000B1
:1021A00008F8080000000000203F20202020300018
:1021B00008F8F800F8F80800203F013E013F200031
:1021C00008F830C00008F808203F200007183F003A
:1021D000E01008080810E0000F10202020100F0069
:1021E00008F808080808F000203F2101010100005C
:1021F000E01008080810E0000F10282830504F00A9
:1022000008F8888888887000203F2000030C302060
:1022100000708808080838000038202121221C009E
:10222000180808F8080818000000203F20000000E7
:1022300008F808000008F808001F202020201F00D0
:102240000878880000C83808000007380E01000030
:1022500008F800F800F8080000033E013E03000003
:10226000081868808068180820302C03032C302060
:102270000838C800C83808000000203F20000000CF
:1022800010080808C8380800203826212020180027
:10229000000000FE020202000000007F40404000FB
:1022A000000438C000000000000000010638C00033
:1022B00000020202FE000000004040407F000000DB
:1022C0000000040202040000000000000000000002
:1022D00000000000000000008080808080808080FE
:1022E00000020204000000000000000000000000E6
:1022F000000080808000000000192424123F20008C
:1023000010F0008080000000003F112020110E001E
:102310000000008080800000000E112020201100AD
:10232000000080808090F000001F202020103F20BF
:102330000000808080800000001F242424241700D7
:10234000008080E0909020000020203F20200000AE
:102350000000808080808000006B949494936000E3
:1023600010F0008080800000203F210000203F20EE
:1023700000809898000000000020203F20200000EE
:10238000000000809898000000C08080807F0000DE
:1023900010F0000080808000203F240629302000BB
:1023A000001010F8000000000020203F2020000056
:1023B0008080808080808000203F20003F20003F80
:1023C0008080008080800000203F210000203F208E
:1023D0000000808080800000001F202020201F003F
:1023E000808000808000000080FF912020110E007E
:1023F0000000008080008000000E11202091FF80EE
:10240000808080008080800020203F21200001000B
:102410000000808080808000003324242424190060
:10242000008080E0808000000000001F202010005D
:102430008080000000808000001F202020103F20AE
:10244000808080008080800000030C300C0300003E
:102450008080008080008080010E300C07380601EB
:1024600000808080008080000020310E2E3120000E
:1024700080808000008080800081867818060100BE
:1024800000808080808080000021302C222130005C
:102490000000000000FC020200000000013E40407D
:1024A00000000000FF00000000000000FF0000002E
:1024B0000202FC000000000040403E01000000005D
:1024C00000020102020402000000000000000000FF
:1024D0001060028C0000FE9292929292FE00000028
:1024E00000000000000000000000000000000000EC
:1024F00000000000000000000000000000000000DC
:1025000000000000000000000000000000000000CB
:1025100000000000000000000000000000000000BB
:1025200000000000000000000000000000000000AB
:1025300004047E01407E42427E427E42427E400052
:10254000000000000000000000000000000000008B
:10255000000000000000000000000000000000007B
:10256000000000000000000000000000000000006B
:10257000000000000000000000000000000000005B
:10258000000000000000000000000000000000004B
:102590000000FC4444444444FE4242434240400064
:1025A000000000000000000000000000000000002B
:1025B000000000000000000000000000000000001B
:1025C000000000000000000000000000000000000B
:1025D00000000000000000000000000000000000FB
:1025E00000000000000000000000000000000000EB
:1025F0000000FF4020000000010608102040F80005
:1026000000000000000000000000000000000000CA
:1026100000000000000000000000000000000000BA
:1026200000000000000000000000000000000000AA
:10263000000000000000000000000000000000009A
:10264000000000000000000000000000000000008A
:102650002424A4FEA3220022CC0000FF00000000DE
:10266000000000000000000000000000000000006A
:10267000000000000000000000000000000000005A
:10268000000000000000000000000000000000004A
:10269000000000000000000000000000000000003A
:1026A000000000000000000000000000000000002A
:1026B000080601FF00010404040404FF02020200F2
:1026C000000000000000000000000000000000000A
:1026D00000000000000000000000000000000000FA
:1026E00000000000000000000000000000000000EA
:1026F00000000000000000000000000000000000DA
:1027000000000000000000000000000000000000C9
:1027100040301196909091969090981413503000FC
:1027200000000000000000000000000000000000A9
:102730000000000000000000000000000000000099
:102740000000000000000000000000000000000089
:102750000000000000000000000000000000000079
:102760000000000000000000000000000000000069
:10277000040404040444847E0605040404040400E0
:102780000000000000000000000000000000000049
:102790000000000000000000000000000000000039
:1027A0000000000000000000000000000000000029
:1027B0000000000000000000000000000000000019
:1027C0000000000000000000000000000000000009
:1027D0008088A8A8A9AAE8B8A8AAA9A8A88880005B
:1027E00000000000000000000000000000000000E9
:1027F00000000000000000000000000000000000D9
:1028000000000000000000000000000000000000C8
:1028100000000000000000000000000000000000B8
:1028200000000000000000000000000000000000A8
:1028300008088444221D000000FD0204040808006A
:102840000000000000000000000000000000000088
:102850000000000000000000000000000000000078
:102860000000000000000000000000000000000068
:102870000000000000000000000000000000000058
:102880000000000000000000000000000000000048
:10289000221408F402202424A47F243428262000B3
:1028A0000000000000000000000000000000000028
:1028B0000000000000000000000000000000000018
:1028C0000000000000000000000000000000000008
:1028D00000000000000000000000000000000000F8
:1028E00000000000000000000000000000000000E8
:1028F0004482413F000402FF49494949FF0000006A
:1029000000000000000000000000000000000000C7
:1029100000000000000000000000000000000000B7
:1029200000000000000000000000000000000000A7
:102930000000000000000000000000000000000097
:102940000000000000000000000000000000000087
:102950001060028C0000FE9292929292FE000000A3
:102960000000000000000000000000000000000067
:102970000000000000000000000000000000000057
:102980000000000000000000000000000000000047
:102990000000000000000000000000000000000037
:1029A0000000000000000000000000000000000027
:1029B00004047E01407E42427E427E42427E4000CE
:1029C0000000000000000000000000000000000007
:1029D00000000000000000000000000000000000F7
:1029E00000000000000000000000000000000000E7
:1029F00000000000000000000000000000000000D7
:102A000000000000000000000000000000000000C6
:102A10000000FC242424FC252624FC242424040077
:102A200000000000000000000000000000000000A6
:102A30000000000000000000000000000000000096
:102A40000000000000000000000000000000000086
:102A50000000000000000000000000000000000076
:102A60000000000000000000000000000000000066
:102A700040308F80844C55252525554C8080800022
:102A80000000000000000000000000000000000046
:102A90000000000000000000000000000000000036
:102AA0000000000000000000000000000000000026
:102AB0000000000000000000000000000000000016
:102AC0000000000000000000000000000000000006
:102AD00000000000000000000000000000000000F6
:102AE00000000000000000000000000000000000E6
:102AF00000000000000000000000000000000000D6
:102B000000000000000000000000000000000000C5
:102B100000000000000000000000000000000000B5
:102B200000000000000000000000000000000000A5
:102B30000000363600000000000000000000000029
:102B40000000000000000000000000000000000085
:102B50000000000000000000000000000000000075
:102B60000000000000000000000000000000000065
:102B70000000000000000000000000000000000055
:102B80000000000000000000000000000000000045
:102B9000060909E6F80C040202020202041E000003
:102BA0000000000000000000000000000000000025
:102BB0000000000000000000000000000000000015
:102BC0000000000000000000000000000000000005
:102BD00000000000000000000000000000000000F5
:102BE00000000000000000000000000000000000E5
:102BF000000000071F3020404040404020100000EF
:102C000000000000000000000000000000000000C4
:102C100000000000000000000000000000000000B4
:102C200000000000000000000000000000000000A4
:102C30000000000000000000000000000000000094
:102C40000000000000000000000000000000000084
:102C500080804020100804C30408102040808000B9
:102C60000000000000000000000000000000000064
:102C70000000000000000000000000000000000054
:102C80000000000000000000000000000000000044
:102C90000000000000000000000000000000000034
:102CA0000000000000000000000000000000000024
:102CB00000000000000000FF000000000000000015
:102CC0000000000000000000000000000000000004
:102CD00000000000000000000000000000000000F4
:102CE00000000000000000000000000000000000E4
:102CF00000000000000000000000000000000000D4
:102D000000000000000000000000000000000000C3
:102D100090523410FF10345280708F0808F8080069
:102D200000000000000000000000000000000000A3
:102D30000000000000000000000000000000000093
:102D40000000000000000000000000000000000083
:102D50000000000000000000000000000000000073
:102D60000000000000000000000000000000000063
:102D7000829A566322528E008040330C334080008A
:102D80000000000000000000000000000000000043
:102D90000000000000000000000000000000000033
:102DA0000000000000000000000000000000000023
:102DB0000000000000000000000000000000000013
:102DC0000000000000000000000000000000000003
:102DD000F02D00080000002094000000A01800085A
:102DE000842E00089400002004040000B01800089D
:102DF00000A24A04000000000000000001020304D9
:102E00000607080900000000010203040102030490
:102E100006070809020406083031323334353637E4
:102E20003839004F4B0000000000000000004C65E6
:102E300066740000000000000052696768740000BA
:102E40000000000055700000000000000000004479
:102E50006F776E000000000000002A0000000000F4
:102E6000000000000023000000000000000000003F
:102E70005000000000000000000000000000000002
:042E8000000000004E
:04000005080000ED02
:00000001FF
